:100000003AC06EC0FFC552C051C050C08BC64EC072
:100010004DC03FC64BC04AC049C048C047C046C09B
:1000200045C0DDC143C009021200010100C0FA0948
:10003000040000000000000012011001FF00000891
:10004000C016DC0500010102000116034C0045004A
:10005000440043006F006E00740072006F006C007B
:1000600012036F0062006400650076002E006100DC
:1000700074000403090411241FBECFE5D4E0DEBFE1
:10008000CDBF10E0A0E6B0E0E2E9FEE002C00590DE
:100090000D92A637B107D9F710E0A6E7B0E001C08E
:1000A0001D92A13CB107E1F784D6F2C6A9CFA82FD3
:1000B000B92F80E090E041E050EA609530E009C05F
:1000C0002D9182279795879510F084279527305E8C
:1000D000C8F36F5FA8F30895EADF8D939D930895A9
:1000E000CF93CFB7CF93DF93C395849BE9F7849BDE
:1000F0000BC0849B09C0849B07C0849B05C0849B64
:1001000003C0849B01C089C06F93C091AC00DD2700
:10011000CA56DF4F2F9365E5849B03C02F916F91E3
:10012000E6CF0F931F934F9320E040E15F9300B31E
:10013000047104FB27F93F9350E03BE039C0147190
:1001400040642F77012F5F5F1EC0406810B31471A9
:100150002F7752501FC0406400B32F770471D1F144
:100160005F5F00C023C0406210B32F77147191F11C
:100170005F5F00C025C004711027515012F45D5F0D
:100180000000115027952C3F10B3C8F614710127B9
:10019000015027952C3FC8F64227499300B30471BC
:1001A00010274F73115027952C3FA8F6469546957A
:1001B00010B3147179F00127015027952C3F98F660
:1001C0006B5A60F3315000B3B0F600C010E41ABFB0
:1001D000002717C03B503195C31BD04010E41ABF15
:1001E0000881033CF9F00B34E9F02091AD0019814E
:1001F000110F1213EDCF093651F10D3211F0013EFE
:1002000039F70093B0003F915F914F911F910F918B
:100210002F916F91CAB7C6FD67CFDF91CF91CFBF46
:10022000CF9118952091B000222369F31091AF006F
:10023000112339F534303AF13093AF002093940014
:100240001091AC003BE0311B3093AC001CC000911E
:10025000AF000130B4F40AE53091620034FD14C0FF
:1002600000936200C1EBD0E013C0052710E000C08E
:10027000000002BB1AC0052710E0221F1DC010E0BD
:1002800021C04AE502C032ED432FC4E1D0E032E0A4
:1002900011B31461949A02B311BB54E120E865E3F1
:1002A00020FF052702BB279517951C3FF0F66695A2
:1002B000B8F7B1F720FF052702BB279517951C3F1C
:1002C000D0F62795179517FF052700001C3F02BBA6
:1002D000B0F629913A9519F70B7E1091AE00110FE7
:1002E000C651D04002BB11F01093AD0010E41ABF0C
:1002F000006111B31B7E402F4B7E54E05A95F1F7FD
:1003000002BB11BB42BB7FCF83E080B911B88FEF36
:1003100083B984E086BF089586B79927817090706D
:100320000895FADF8823E9F78091610099270895FD
:100330001F93CF93DF93EC01162FEEDF8823E9F7AD
:1003400010938900888180937700888180FD0CC09C
:1003500091E0911748F4A8E7B0E0FE013196819151
:100360008D939F5F9117D8F3809160008E7F80936B
:10037000600088EF8093610085EA86BFDF91CF91AE
:100380001F910895FC0180818E7F808360938A0095
:100390008091600082608093600063E0CF01C8CFED
:1003A0001F93CF93DF93EC01162FB6DF982F88238E
:1003B000E1F78091600080FF0AC0911740F4FE01D0
:1003C000A7E7B0E08D9181939F5F9117D8F380915B
:1003D000600081709927DF91CF911F9108951F923E
:1003E0000F920FB60F9211242F933F938F939F93E9
:1003F000EF93FF9381B19927887F907088329105A0
:1004000021F18932910564F480319105E1F0813167
:1004100091051CF40897B9F066C04897B1F063C025
:100420008034910509F43FC08134910524F4C897C4
:1004300009F457C058C08035910551F188359105B0
:1004400009F440C050C010927600909176008091DF
:100450008900981750F4E92FFF27E958FF4F9F5F55
:1004600090937600808183B92BC08091600081FFDA
:1004700033C08091770081608093770080918A00FB
:10048000809389001092600088EF8093610029C0FA
:1004900080917600E82FFF27E958FF4F93B19083B2
:1004A0008F5F8093760080917600282F332780918C
:1004B0008900992701972817390714F485EC18C08B
:1004C00085E816C080917600E82FFF27E958FF4F96
:1004D00083B180838091600081608093600084E9B3
:1004E00007C085EA05C081B1887F8093610084E000
:1004F00086BFFF91EF919F918F913F912F910F9028
:100500000FBE0F901F901895A598A49885B380638F
:1005100085BBFADEA09AA89A08959927887F9070E3
:1005200080339105D1F0813391052CF4009749F186
:10053000809771F02BC088349105A1F08934910522
:100540001CF4C897A1F022C0883F9105A9F01EC0F5
:1005500061E070E080E090E004C062E070E080E084
:1005600090E00DC164E070E080E090E0FACF68E0D8
:1005700070E080E090E0F5CF60E170E080E090E036
:10058000F0CF60E270E080E090E0EBCF60E470E0FC
:1005900080E090E0E6CFFC019A01AB0180EA809315
:1005A0008B008F2F992780938C00E0938D00852FEF
:1005B0009927AA27BB2780938E0040938F00309302
:1005C00090002093910067E08BE890E0B1DEA4DE1C
:1005D0008823E9F78091600080FD02C0A2DE9DCFF4
:1005E00008959C0181EA80938B00832F9927809343
:1005F0008C0020938D0065E08BE890E0C3DE01C0A5
:10060000A8958ADE8823E1F78091600080FD04C010
:1006100085E08150F0F730C065E08BE890E0C0DE07
:1006200080918C009927AA27BB27582F442733276E
:10063000222780918D009927AA27BB27DC019927C3
:100640008827282B392B4A2B5B2B80918E009927EA
:10065000AA27BB27BA2FA92F982F8827282B392BF9
:100660004A2B5B2B80918F009927AA27BB27282B29
:10067000392B4A2B5B2B06C054DE4FDF20E030E0E5
:1006800040E050E0CA01B90108950F931F938C0117
:10069000BC0180E090E0E9D310936B0000936A0006
:1006A0001F910F91089580E090E0CDC31F93182F04
:1006B000682F83E090E0CCD3109369001F910895D8
:1006C00083E090E0B8D3992708951F93182F682FDF
:1006D00084E090E0BDD3109368001F91089584E0FA
:1006E00090E0A9D39927089586B399279695879581
:1006F00080959095817090700895B998C19A0895E9
:1007000083B7846083BF89B7816089BF089585B747
:10071000886085BF8BB780688BBFB89AC09AF0CFCE
:1007200001972FEF8F3F920749F020EE35E12350DC
:1007300030404FEF2F3F3407D1F7F2CF0895F894B0
:1007400060E070E080E090E01AD088E190E02EE078
:100750000FB6F894A89581BD0FBE21BD60E070E092
:1007600080E090E80CD08AE090E0DADF60E070E0B2
:1007700080E090E004D088E290E0D2DFEFCFCF932A
:10078000DF93FC01EB0120E030E040E050E8AB9863
:10079000CE01DF0182239323A423B5230097A10573
:1007A000B10511F0AA9A01C0AA98AB9A569547953F
:1007B00037952795211531054105510541F7AB982E
:1007C000A99AA998DF91CF91089584B38E6084BBD4
:1007D0000895CF93DF936091AF00635067FD96C09B
:1007E0008091AC00C2EAD0E0C81BD109809194008E
:1007F0008D3209F079C0683009F086C083EC8093AF
:10080000B1008AE5809362001092BC009881892F24
:10081000807621F0CE01DED0982F53C0382F4AEBDE
:1008200050E02A818093BA008981882349F49F711E
:1008300019F481E08093BA003093BB0032E03CC0F1
:10084000853019F42093AE0037C0863041F58B8196
:10085000813021F432E188E390E019C0823021F444
:1008600032E186E290E013C08330A9F4222321F420
:1008700034E082E790E00BC0213021F432E180E6E1
:1008800090E005C0223039F436E18AE490E090939C
:1008900093008093920080E48093BC0011C0883064
:1008A00019F445E950E007C0893019F42093950008
:1008B00003C08A3009F431E05093930040939200D2
:1008C000932F9F3F39F4888187FD9E8180E8809334
:1008D000BC0007C08F81882321F48E81891708F41A
:1008E000982F9093630010C08091BC0087FF0CC0CC
:1008F000CE01C9D08F3F21F48EE18093620004C005
:10090000882311F0109263001092AF008091620072
:1009100084FF3DC0809163008F3FC9F1682F89300B
:1009200008F068E0861B809363008091B10098E82E
:1009300089278093B100A2EBB0E06623B9F0962F2F
:10094000E0919200F09193008091BC0086FF06C078
:1009500084918D9331969150D9F704C081918D93F4
:100960009150E1F7F0939300E09392007727C62F20
:10097000693038F482EB90E0AFDBCC5FCC3028F408
:1009800001C0CEE18FEF80936300C093620094E1D9
:1009900080B3847131F49150D9F79093AE00909365
:1009A000AD00DF91CF91089585B7826085BF8BB789
:1009B00080648BBF0895CF93F7DF89989198CFEF2C
:1009C000A89581E090E0ACDEC150D1F7899A919A68
:1009D000CF910895CF93DF93EC0189818823A9F407
:1009E0008A818093BD008B818093BE008C8180932F
:1009F000BF008D818093C0008DEB90E090939300B9
:100A00008093920084E090E03BC0823059F41092D1
:100A1000BD008DEB90E0909393008093920081E075
:100A200090E02EC0843051F48B819927382F2227F3
:100A30008A819927822B932B28DE20C0853019F4D8
:100A40008A8134DE1BC0863019F48A813EDE16C0EE
:100A50008330A1F460E070E080E090E090DE8B8174
:100A60009927982F88272A813327822B932B9093BD
:100A70006500809364008FEF90E002C080E090E01A
:100A8000DF91CF910895FC0180819927AA27BB2788
:100A9000B82FAA279927882721813327442755274C
:100AA000A90133272227822B932BA42BB52B22813C
:100AB000332744275527542F432F322F2227822BA9
:100AC000932BA42BB52B2381332744275527822B27
:100AD000932BA42BB52BAC01BD01809164009091A8
:100AE000650059DD81E090E0089510927400109245
:100AF000730012BE08958EB581608EBD89E999E1BB
:100B00009BBD8ABD89B7806189BF08958EB58E7FF0
:100B10008EBD89B78F7E89BF08958EB589608EBDE1
:100B200089B7806189BF08958091730090917400A6
:100B3000982F882722B73327822B932B9BBD8ABD02
:100B4000ECCF83B78B7F83BF89B78E7F89BF089532
:100B500083B7846083BF89B7816089BF089510928D
:100B60006700809170008F5F8093700090916800A3
:100B7000891710F01092700080917000282F332791
:100B800080916E0090916F00289FA001299F500DC9
:100B9000389F500D112450937200409371000895B6
:100BA00020916900222371F080916700482F55271A
:100BB0003327215030408F5F8093670042175307DF
:100BC0000CF0CDDF809171009091720020916A004D
:100BD00030916B00820F931F90936D0080936C0097
:100BE000089510927000109272001092710080911E
:100BF0006A0090916B0090936D0080936C0010924E
:100C0000670008951F920F920FB60F9211242F9331
:100C10003F934F935F936F937F938F939F93AF9384
:100C2000BF93EF93FF9380916600882319F0109291
:100C300066008EDF80917300909174008F3F910564
:100C400018F4AEDF71DF06C061DF62E070E080E0C3
:100C500090E895DD4ADFFF91EF91BF91AF919F91B1
:100C60008F917F916F915F914F913F912F910F9055
:100C70000FBE0F901F90189520E030E08091730018
:100C800090917400815A974010F021E030E0C90142
:100C900008951F920F920FB60F9211242F933F9336
:100CA0004F935F936F937F938F939F93AF93BF9374
:100CB000EF93FF93E1DF882371F48091660088232E
:100CC00051F4809173009091740001969093740098
:100CD0008093730016C060E070E080E090E04FDD2C
:100CE00015DF2FDF85B78F7885BF81E080936600A1
:100CF00078DF789485B7806885BF889585B78F77CA
:100D000085BFFF91EF91BF91AF919F918F917F919F
:100D10006F915F914F913F912F910F900FBE0F9068
:100D20001F9018951F920F920FB60F9211242F93B8
:100D30003F934F935F936F937F938F939F93AF9363
:100D4000BF93EF93FF93789480916C0090916D0026
:100D500048DCDC01CB01BC01CD0111DD80916C00D0
:100D600090916D00049690936D0080936C0040917B
:100D7000710050917200841B950B20916E00309190
:100D80006F008217930720F050936D0040936C0022
:100D9000FF91EF91BF91AF919F918F917F916F9153
:100DA0005F914F913F912F910F900FBE0F901F9029
:100DB0001895CFE5D4E0DEBFCDBF88E10FB6F8943B
:100DC00081BD11BC0FBEF7DD98DCFFDCA0DC9CDB35
:100DD00092DE479A68DC90936B0080936A0070DC27
:100DE000809369007CDC80936800789488EE93E0BF
:100DF00097DCEFDCC0E0D0E010E016C080E092E0CD
:100E0000A0E0B0E04B97A109B1098F3F2FEF920707
:100E10002FEFA2072FEFB207A9F7CE01219681503D
:100E20009E4F08F08CDC11E05FDC882339F711233A
:100E300001F395DEDECFE199FECF9FBB8EBBE09A3A
:100E400099278DB30895A8E1B0E042E050E012C0C8
:100E5000262FE199FECF9FBB8EBB2DBB0FB6F8941A
:100E6000E29AE19A0FBE01960895F2DF272FF1CFA3
:100E7000DC01CB01FC01E199FECF06C0FFBBEEBB5C
:100E8000E09A31960DB20D9241505040B8F7089556
:020E9000FFCF92
:100E920000F85AFF000000000100000000000004FA
:060EA2000000000000004A
:00000001FF
